:020000040800F2
:1000000068060020CD010008310800082B06000812
:100010002D080008870200082D0A000800000000D3
:10002000000000000000000000000000DD080008E3
:100030008B02000800000000B9080008C909000888
:10004000E7010008E7010008E7010008E7010008F0
:10005000E7010008E7010008E7010008E7010008E0
:10006000E7010008E701000809030008E7010008AC
:10007000E7010008E7010008E7010008E7010008C0
:10008000E7010008E7010008E7010008E7010008B0
:10009000E7010008E7010008E7010008390300084C
:1000A000E7010008E7010008E7010008E701000890
:1000B000E7010008E7010008E7010008E701000880
:1000C000E7010008E7010008E7010008E701000870
:1000D000E7010008E7010008E7010008E701000860
:1000E000D5020008E7010008E7010008E701000861
:1000F000E7010008E7010008E7010008E701000840
:10010000E7010008E7010008E7010008E70100082F
:10011000E7010008E7010008E7010008E70100081F
:10012000E7010008E7010008E7010008E70100080F
:1001300000F002F800F03AF80AA090E8000C8244BF
:100140008344AAF10107DA4501D100F02FF8AFF29C
:10015000090EBAE80F0013F0010F18BFFB1A43F0A5
:10016000010318474009000060090000103A24BF4D
:1001700078C878C1FAD8520724BF30C830C144BF0C
:1001800004680C607047000000230024002500264E
:10019000103A28BF78C1FBD8520728BF30C148BFEA
:1001A0000B6070471FB51FBD10B510BD00F031F8D2
:1001B0001146FFF7F7FF00F03BFC00F04FF803B4E7
:1001C000FFF7F2FF03BC00F057F800000948804732
:1001D00009480047FEE7FEE7FEE7FEE7FEE7FEE729
:1001E000FEE7FEE7FEE7FEE704480549054A064B41
:1001F00070470000CD0900083101000868000020A8
:1002000068060020680200206802002070477047DE
:100210007047754600F02CF8AE4605006946534617
:1002200020F00700854618B020B5FFF7DDFFBDE8D8
:1002300020404FF000064FF000074FF000084FF04D
:10024000000B21F00701AC46ACE8C009ACE8C009DE
:10025000ACE8C009ACE8C0098D46704710B504464B
:10026000AFF300802046BDE81040FFF7A8BF0000B4
:10027000004870470400002001491820ABBEFEE78B
:1002800026000200704700BFFEE7704700B5034636
:1002900003E04FF47A7000F005F8181EA3F1010393
:1002A000F7D100BD00EBC001C9004FF0E022516161
:1002B000002191610521116100BF4FF0E021096922
:1002C00001F480310029F8D004214FF0E0221161BF
:1002D0007047000010B54FF4804000F04BF8012843
:1002E00009D18103064800F08AF920B90548008841
:1002F000401C044908804FF4804000F035F810BDE0
:10030000000C01400000002010B5102000F032F871
:1003100001280DD10A20FFF7B9FF1021054800F090
:100320006EF910B9032000F0FDF9102000F01CF860
:1003300010BD00000010014010B5202000F01AF898
:1003400001280DD10A20FFF7A1FF2021054800F068
:1003500056F910B9032000F027FA202000F004F825
:1003600010BD000000100140014908607047000006
:1003700014040140014600200022074B1B6803EAD9
:100380000102054B14331B680B4013B10AB1012065
:1003900000E00020704700000004014000212349D4
:1003A0008279002A3AD00A46126803689A430B46BB
:1003B0001A600A1D126803689A430B1D1A600279BD
:1003C00011440A6803681A430A60184A083212681E
:1003D00003689A43154B08331A601A1D12680368A4
:1003E0009A43124B0C331A604279102A0ED11A1F0D
:1003F000126803681A430D4B08331A601A1D1268FD
:1004000003681A43094B0C331A600DE0074942791F
:1004100011440A6803681A430A6005E0027911442E
:100420000A6803689A430A607047000000040140AC
:100430001CB50121084600F041FA0421022000F019
:1004400033F80521022000F02FF830200090002022
:100450008DF8040001208DF806000C208DF80500B1
:100460006846FFF79BFF1CBD08B54FF4A06000F085
:1004700019FA0A208DF8000001208DF803008DF88C
:10048000010000208DF80200684600F0D3F9172023
:100490008DF8000002208DF8010000208DF8020088
:1004A000684600F0C7F908BD30B500228B071C0F65
:1004B0000F2303FA04F20B4B8C1053F824309343B0
:1004C000084C8D1044F8253023468C1053F8243006
:1004D0008C07240F00FA04F42343024C8D1044F8D7
:1004E000253030BD080001402DE9F04102460025CD
:1004F0000026002000230024002791F803C00CF000
:100500000F0591F803C00CF0100CBCF1000F03D0E4
:1005100091F802C04CEA050591F800C0BCF1000F4B
:1005200031D0146800202BE04FF0010C0CFA00F3DE
:10053000B1F800C00CEA03069E4220D183004FF0C0
:100540000F0C0CFA03F7BC4305FA03FC4CEA040455
:1005500091F803C0BCF1280F06D14FF0010C0CFA42
:1005600000FCC2F814C00AE091F803C0BCF1480FC7
:1005700005D14FF0010C0CFA00FCC2F810C0401C71
:100580000828D1D31460B1F800C0BCF1FF0F34DDEE
:10059000546800202EE000F1080C4FF0010808FA22
:1005A0000CF3B1F800C00CEA03069E4221D183008F
:1005B0004FF00F0C0CFA03F7BC4305FA03FC4CEAAE
:1005C000040491F803C0BCF1280F05D100F1080C18
:1005D00008FA0CF8C2F8148091F803C0BCF1480F77
:1005E00007D100F1080C4FF0010808FA0CF8C2F826
:1005F0001080401C0828CED35460BDE8F08102462C
:10060000002093680B400BB1012000E000207047F0
:1006100002460020D3680B400BB1012000E000200F
:100620007047416170470161704700BFFEE70000FD
:1006300008B50121142000F041F948208DF803008D
:100640000120ADF8000003208DF80200694605483E
:10065000FFF74AFF3020ADF8000069460248FFF777
:1006600043FF08BD000801400010014010B5002400
:1006700001211D48FFF7C3FF68B91420FFF706FEEC
:1006800000BF01211848FFF7BAFF0028F9D0142055
:10069000FFF7FCFD012410211448FFF7B0FF68B9F3
:1006A0001420FFF7F3FD00BF10211048FFF7A7FF4C
:1006B0000028F9D01420FFF7E9FD022420210B487F
:1006C000FFF79DFF68B91420FFF7E0FD00BF202170
:1006D0000648FFF794FF0028F9D01420FFF7D6FD55
:1006E0000324204610BD000000080140001801400E
:1006F00008B50121402000F0E1F810208DF803003A
:100700003C20ADF8000003208DF802006946044843
:10071000FFF7EAFE3C210248FFF785FF08BD000015
:100720000018014070B50446002525E0042000F0C3
:1007300031F86420FFF7AAFD042000F021F808201A
:1007400000F028F86420FFF7A1FD082000F018F859
:10075000102000F01FF86420FFF798FD102000F033
:100760000FF8202000F016F86420FFF78FFD2020FE
:1007700000F006F8681CC5B2A542D7DB70BD0000CA
:1007800010B5044621460248FFF74DFF10BD00009A
:100790000018014010B5044621460248FFF741FF0A
:1007A00010BD00000018014070B50446002525E08A
:1007B0002020FFF7EFFF6420FFF768FD2020FFF700
:1007C000DFFF1020FFF7E6FF6420FFF75FFD10203A
:1007D000FFF7D6FF0820FFF7DDFF6420FFF756FD87
:1007E0000820FFF7CDFF0420FFF7D4FF6420FFF7B8
:1007F0004DFD0420FFF7C4FF681CC5B2A542D7DB3E
:1008000070BD000010B5044621460748FFF700FF01
:1008100020B921460448FFF706FF03E021460248BD
:10082000FFF7FFFE10BD00000018014000BFFEE70B
:100830007047000070B5002100230F22C47804B374
:10084000154C246804F4E064C4F5E064210AC1F1A5
:100850000403CA40447804FA03F184781440214325
:1008600009010E4C0678A155047804F01F050124F7
:10087000AC4005786D11AD0005F1E025C5F80041EB
:1008800009E0047804F01F050124AC40044D06780B
:10089000761145F8264070BD0CED00E000E400E064
:1008A00080E100E002490143024A11607047000004
:1008B0000000FA050CED00E07047000029B1064A7F
:1008C00092690243044B9A6104E0034A92698243AD
:1008D000014B9A617047000000100240704710B54C
:1008E00000F002F810BD00000CB50020019000904F
:1008F0003348006840F480303149086000BF304818
:10090000006800F4003000900198401C01900098AD
:1009100018B90198B0F5A06FF1D12948006800F42A
:10092000003010B10120009001E0002000900098FC
:10093000012843D12348006840F010002149086095
:100940000846006820F0030008600846006840F090
:10095000020008601A484068194948600846406823
:1009600048600846406840F4806048600846406837
:1009700020F47C1048600846406840F4E810486065
:100980000846006840F08070086000BF0C480068AE
:1009900000F000700028F9D00948406820F00300FA
:1009A000074948600846406840F00200486000BFC0
:1009B0000348406800F00C000828F9D10CBD000085
:1009C00000100240002002407047000010B513489C
:1009D000006840F00100114908600846406810496D
:1009E00008400E494860084600680E4908400B4917
:1009F00008600846006820F48020086008464068C7
:100A000020F4FE0048604FF41F008860FFF767FF86
:100A10004FF000600449086010BD00000010024063
:100A20000000FFF8FFFFF6FE08ED00E000BFFEE764
:100A3000FFF75EFEFFF7FCFDFFF7FAFCFFF714FD82
:100A40002FE00420FFF7DEFE4FF4FA70FFF71EFCE4
:100A5000FFF70CFE012824D1002420E00420FFF73A
:100A600099FE0820FFF796FE1020FFF793FE202046
:100A7000FFF790FE4FF49670FFF708FC0420FFF795
:100A80007FFE0820FFF77CFE1020FFF779FE202074
:100A9000FFF776FE4FF49670FFF7F8FB641C032C0B
:100AA000DCDBCEE7C40A00080000002004000000E0
:100AB0006C010008C80A0008040000206406000059
:080AC00088010008000000009D
:0400000508000131BD
:00000001FF
